:020000040800F2
:100000001004002039010008AF090008AB090008FE
:10001000AD09000881010008890A000800000000FD
:10002000000000000000000000000000D3090008EC
:100030008301000800000000D1090008D50900086C
:100040005301000853010008530100085301000840
:100050005301000853010008530100085301000830
:100060005301000853010008530100085301000820
:100070005301000853010008530100085301000810
:10008000530100085301000853010008000000005C
:100090000000000000000000000000005301000804
:1000A00053010008530100085301000853010008E0
:1000B00053010008530100085301000853010008D0
:1000C00053010008530100085301000853010008C0
:1000D00053010008530100085301000853010008B0
:1000E00053010008530100085301000800000000FC
:1000F0000000000000000000000000000000000000
:1001000000000000000000000000000000000000EF
:100110000000000000000000530100085301000827
:10012000DFF810D000F01AF800480047A90A0008CC
:10013000AFF30080100400200648804706480047BF
:10014000FEE7FEE7FEE7FEE7FEE7FEE7FEE7FEE787
:10015000FEE7FEE73D0A000821010008064C074DB6
:1001600006E0E06840F0010394E807009847103487
:10017000AC42F6D3FFF7D8FF740B0008940B0008CD
:10018000FEE7704770B5044600F0F2F80546601CC3
:1001900002D004480078044400F0EAF8401BA04272
:1001A000FAD370BD000000202DE9F84FDFF890A1D0
:1001B00000220AF1040B144601274FF00F090BF13E
:1001C000040E00BF0B6807FA04F52B40AB4274D154
:1001D000DFF870C14E68A6EB0C0866452BD00DDC2D
:1001E000032E34D005DC36B3012E19D0022E2FD1C8
:1001F0001BE0112E16D0122E2AD119E0B8F5881F57
:1002000019D006DCB8F5803F15D0B8F5801F1FD196
:1002100011E0B8F5001F0ED0B8F5041F18D10AE0A0
:10022000CA6815E0CA68121D12E0CA6808320FE0F9
:10023000CA680C320CE08A682AB1012A4FF0080221
:1002400003D0456104E0042202E0056100E00022E1
:10025000FF2B01D8064601E000F104064FEA8405B1
:1002600001D9A5F12005D6F800C009FA05F82CEA55
:10027000080C02FA05F54CEA050CC6F800C04D68FA
:10028000ED0057D5304DAE6946F00106AE61AD695F
:1002900024F0030605F0010500952C4D06EB050C36
:1002A000DCF80850A6074FEA167809FA08F6B543B5
:1002B000274EB04202D1002610E03BE0254EB0426E
:1002C00001D101260AE0244EB04201D1022605E008
:1002D000224EB04201D1032600E0042606FA08F6B9
:1002E0002E43CCF808604D68DAF80060ED035546FF
:1002F00001D51E4300E09E432E604D68DBF8006090
:10030000AD035D4601D51E4300E09E432E604D685F
:10031000DEF80060ED02754601D51E4300E09E4305
:100320002E604D68AD020E4D2E6801D51E4300E0D3
:100330009E432E60641C102CFFF444AFBDE8F88F80
:1003400000040140000011100010024000000140B4
:1003500000080140000C0140001001400014014061
:100360000C0401400AB1016170470904FBE7000079
:100370000148806870470000000000200248816842
:1003800002781144816070470000002010B50320FE
:1003900000F090F8002000F005F800F023F80020AD
:1003A00010BD000070B50D4D04464FF47A712878E9
:1003B000B1FBF0F00A490968B1FBF0F000F0DDFA9A
:1003C00048B9102C07D200222146501E00F052F8E6
:1003D00000206C6070BD012070BD00000000002096
:1003E0000C000020214808B5816941F001018161BC
:1003F000816901F001010091C16941F08051C16141
:10040000C06900F080500090032000F053F80022F3
:1004100011466FF00B0000F02DF8002211466FF02E
:100420000A0000F027F8002211466FF0090000F0E2
:1004300021F800221146501F00F01CF8002211463E
:10044000101F00F017F800221146901E00F012F85D
:1004500000221146501E00F00DF80548416821F0B9
:10046000E06141F00071416008BD000000100240F1
:1004700000000140F0B40E4B1B680C46C3F302238E
:10048000C3F10705042D00D90425191D072901D240
:10049000002300E0DB1E012606FA05F1491E21407B
:1004A00099409E40761E16403143F0BC00F080BA61
:1004B0000CED00E0064900F0070208684FF6FF0364
:1004C000184040EA0220034A1043086070470000C9
:1004D0000CED00E00000FA052DE9F041054600783A
:1004E000394C800705D56068A96820F0F000084302
:1004F00060602878C00744D06868012804D021686B
:10050000022804D0890703E02168890300E08901FB
:10051000002902DB0120BDE8F081616821F00301C0
:1005200001436160FFF724FF0746686841F288369F
:10053000012808D0022812D01FE000BFFFF718FFE3
:10054000C01BB04217D86068C0F381000128F5D104
:1005500017E000BFFFF70CFFC01BB0420BD860686C
:10056000C0F381000228F5D10BE000BFFFF700FFC8
:10057000C01BB04201D90320CDE7606810F00C0F1A
:10058000F4D12878400705D56068E96820F4E06078
:10059000084360602878000706D56068296920F460
:1005A000605040EAC100606000F01AF86168074AD4
:1005B000C1F30311515CC840054908600020FFF7F2
:1005C000F1FE0020A7E7000000100240640B0008C5
:1005D0000C00002001480068704700000C0000205B
:1005E00013A188B00FC98DE80F0015A10DF1100CF3
:1005F0000FC98CE80F00164A5168164801F00C0329
:10060000042B10D0082B0ED1C1F38343C9031DF86E
:1006100003000AD5D16A04AA01F00F01515C0D4A0A
:100620005043B0FBF1F008B070470B494843FAE77C
:1006300002030405060708090A0B0C0D0E0F101023
:100640000102030405060708090A0B0C0D0E0F1022
:100650000010024000127A0000093D002DE9F84F19
:1006600004460078B94DC00748D06868C0F38100DF
:10067000012807D06868C0F38100022809D16868A2
:10068000C00306D52868800338D5606800286FD07D
:1006900034E06068B0F5803F0BD010B1B0F5A02F0A
:1006A00011D0286820F480302860286820F4802049
:1006B00002E0286840F480302860606888B1FFF765
:1006C00057FE064609E0286840F480202860F0E7DD
:1006D000FFF74EFE801B642875D828688003F7D585
:1006E0000CE0FFF745FE064605E000BFFFF740FEC1
:1006F000801B6428F0D828688003F7D42078944EB3
:1007000080074FF001094FF000083BD5686810F0F2
:100710000C0F07D06868C0F38100022809D168680F
:10072000C00306D42868800714D5206901281FD18A
:1007300010E02069B0B1C6F80090FFF719FE074637
:1007400005E000BFFFF714FEC01B0228C4D82868CC
:100750008007F7D52868616920F0F80040EAC100F9
:1007600028600FE0C6F80080FFF702FE074606E0AB
:10077000E9E000BFFFF7FCFDC01B022823D8286872
:100780008007F7D4207800072CD57248A169D9B129
:10079000C0F80090FFF7ECFD074604E0FFF7E8FD26
:1007A000C01B02280FD8686A8007F7D56A484FF443
:1007B000FA510068B0FBF1F0009000BF0098411EB4
:1007C0000091FAD20EE080E0C0F80080FFF7D0FD83
:1007D000074604E0FFF7CCFDC01B022875D8686A05
:1007E0008007F7D42078400760D5E8690027C0006B
:1007F00008D4E86940F08050E861E869012700F01A
:100800008050009055480168C90513D4016883469B
:1008100041F480710160FFF7ABFD824606E000BF46
:10082000FFF7A6FDA0EB0A0064284ED8DBF8000015
:10083000C005F5D5E06801280AD008B1052813D015
:10084000286A20F001002862286A20F0040002E0F3
:10085000286A40F001002862E06841F2883B98B1C4
:10086000FFF786FD82460BE0286A40F0040028620C
:10087000EEE700BFFFF77CFDA0EB0A0159455AD80F
:10088000286A8007F6D50CE0FFF772FD824605E086
:10089000FFF76EFDA0EB0A0159454CD8286A800786
:1008A000F6D41FB1E86920F08050E861E06988B3B0
:1008B0006968C1F38101022945D00228C6F8608029
:1008C00004D0FFF755FD044638E034E0FFF750FD53
:1008D000074604E0FFF74CFDC01B02282BD8286810
:1008E0008001F7D4206AB0F5803F05D1E86AA1689D
:1008F00020F00F000843E862D4E908010843696862
:1009000021F4741108436860C6F86090FFF730FD69
:10091000044606E015E000BFFFF72AFD001B022891
:1009200009D828688001F7D50BE000BFFFF720FD4C
:10093000001B022802D90320BDE8F88F2868800137
:10094000F4D40020F8E70120F6E700000010024090
:1009500000004242800442420C000020007000402F
:100960004FF0E0210428086903D020F0040008615A
:10097000704740F00400FAE7704710B5401EB0F130
:10098000807F01D3012010BD4FF0E02460610F2172
:10099000601700F00DF80020A06107202061002002
:1009A00010BD10B5FFF7E8FF10BDFEE7FEE770478A
:1009B0000907090E002806DA00F00F0000F1E02018
:1009C00080F8141D704700F1E02080F80014704793
:1009D0007047704710B5FFF7D1FCBDE81040FFF736
:1009E000E0BF10B590B002200090012004901020CC
:1009F0000024059007946846FFF730FE00B1FEE73B
:100A00000F20CDE90A040C940D9400210AA80E943D
:100A1000FFF762FD00B1FEE7FFF7DCFD4FF47A71EE
:100A2000B0FBF1F0FFF7A9FF0420FFF799FF0022C8
:100A30001146501EFFF71EFD10B010BD0E48016894
:100A400041F00101016041680C4A114041600168B8
:100A50000B4A11400160016821F480210160416866
:100A600021F4FE0141604FF41F0181600021C16249
:100A70000449C00308607047001002400000FFF8FE
:100A8000FFFFF6FE08ED00E0FEE702E008C8121FD7
:100A900008C1002AFAD170477047002001E001C167
:100AA000121F002AFBD1704786B0FFF76FFCFFF7DB
:100AB00098FF2A48816941F0040181618069284DCD
:100AC00000F004000490002270212846FFF74AFC41
:100AD00070200090012001900020029002200390DD
:100AE00069462846FFF760FB4FF4FA740022102194
:100AF0002846FFF737FC012220212846FFF732FC69
:100B0000012240212846FFF72DFC2046FFF73AFB43
:100B1000012210212846FFF725FC0022202128462B
:100B2000FFF720FC012240212846FFF71BFC20464E
:100B3000FFF728FB012210212846FFF713FC0122B2
:100B400020212846FFF70EFC002240212846FFF70F
:100B500009FC2046FFF716FBC8E700000010024022
:100B60000008014000000000000000000102030432
:100B700006070809940B0008000000201000000080
:100B80008A0A0008A40B00081000002000040000DE
:100B90009A0A000801000000100000000000000098
:040BA00000366E01AC
:0400000508000121CD
:00000001FF
